:020000040800F2
:1000000000500020011F0008E11C0008E71C000848
:10001000ED1C0008F31C0008F91C0008000000009B
:10002000000000000000000000000000FF1C0008AD
:100030000B1D000800000000171D0008251D00080A
:10004000491F0008491F0008491F0008491F0008F0
:10005000491F0008491F0008491F0008491F0008E0
:10006000491F0008491F0008491F0008491F0008D0
:10007000491F0008491F0008491F0008491F0008C0
:10008000491F0008491F0008491F0008491F0008B0
:10009000491F0008491F0008491F0008491F0008A0
:1000A000491F0008491F0008491F0008491F000890
:1000B000491F0008491F0008491F0008491F000880
:1000C000491F0008491F0008491F0008491F000870
:1000D000491F0008611D0008491F0008491F00084A
:1000E000491F0008491F0008491F000800000000C0
:1000F0000000000000000000000000000000000000
:0C01000000000000000000005FF808F1A3
:1001100010B5054C237833B9044B13B10448AFF341
:1001200000800123237010BDEC01002000000000BE
:10013000B4CD000808B5034B1BB103490348AFF326
:10014000008008BD00000000F0010020B4CD0008D0
:10015000034613F8012B002AFBD1181A0138704707
:1001600081F0004102E000BF83F0004330B54FEA68
:1001700041044FEA430594EA050F08BF90EA020FD5
:100180001FBF54EA000C55EA020C7FEA645C7FEA68
:10019000655C00F0E2804FEA5454D4EB5555B8BF8B
:1001A0006D420CDD2C4480EA020281EA030382EAFC
:1001B000000083EA010180EA020281EA0303362D8E
:1001C00088BF30BD11F0004F4FEA01314FF4801C61
:1001D0004CEA113102D0404261EB410113F0004F73
:1001E0004FEA03334CEA133302D0524263EB43032A
:1001F00094EA050F00F0A780A4F10104D5F1200EC8
:100200000DDB02FA0EFC22FA05F2801841F1000122
:1002100003FA0EF2801843FA05F359410EE0A5F1F6
:1002200020050EF1200E012A03FA0EFC28BF4CF027
:10023000020C43FA05F3C01851EBE37101F00045DD
:1002400007D54FF0000EDCF1000C7EEB00006EEBEA
:100250000101B1F5801F1BD3B1F5001F0CD3490874
:100260005FEA30004FEA3C0C04F101044FEA4452CB
:1002700012F5800F80F09A80BCF1004F08BF5FEA52
:10028000500C50F1000041EB045141EA050130BD32
:100290005FEA4C0C404141EB0101013C28BFB1F544
:1002A000801FE9D291F0000F04BF01460020B1FA8F
:1002B00081F308BF2033A3F10B03B3F120020CDA62
:1002C0000C3208DD02F1140CC2F10C0201FA0CF040
:1002D00021FA02F10CE002F11402D8BFC2F1200CA5
:1002E00001FA02F120FA0CFCDCBF41EA0C0190405B
:1002F000E41AA2BF01EB0451294330BD6FEA0404A4
:100300001F3C1CDA0C340EDC04F11404C4F120028E
:1003100020FA04F001FA02F340EA030021FA04F3A0
:1003200045EA030130BDC4F10C04C4F1200220FAF7
:1003300002F001FA04F340EA0300294630BD21FA35
:1003400004F0294630BD94F0000F83F4801306BFFB
:1003500081F480110134013D4EE77FEA645C18BFEF
:100360007FEA655C29D094EA050F08BF90EA020F86
:1003700005D054EA000C04BF1946104630BD91EA7E
:10038000030F1EBF0021002030BD5FEA545C05D181
:100390004000494128BF41F0004130BD14F58004C0
:1003A0003CBF01F5801130BD01F0004545F0FE4134
:1003B00041F470014FF0000030BD7FEA645C1ABF69
:1003C000194610467FEA655C1CBF0B46024650EAA0
:1003D000013406BF52EA033591EA030F41F40021CC
:1003E00030BD00BF90F0000F04BF0021704730B552
:1003F0004FF4806404F132044FF000054FF0000127
:1004000050E700BF90F0000F04BF0021704730B5E7
:100410004FF4806404F1320410F0004548BF4042BC
:100420004FF000013EE700BF42004FEAE2014FEA11
:1004300031014FEA02701FBF12F07F4393F07F4FEC
:1004400081F06051704732F07F4208BF704793F0EF
:100450007F4F04BF41F40021704730B54FF4607402
:1004600001F0004521F000411CE700BF50EA010205
:1004700008BF704730B54FF000050AE050EA0102AE
:1004800008BF704730B511F0004502D5404261EB1E
:1004900041014FF4806404F132045FEA915C3FF45F
:1004A000D8AE4FF003025FEADC0C18BF03325FEAFC
:1004B000DC0C18BF033202EBDC02C2F1200300FAAD
:1004C00003FC20FA02F001FA03FE40EA0E0021FAD2
:1004D00002F11444BDE600BF70B54FF0FF0C4CF4C0
:1004E000E06C1CEA11541DBF1CEA135594EA0C0F72
:1004F00095EA0C0F00F0DEF82C4481EA030621EAAD
:100500004C5123EA4C5350EA013518BF52EA0335E7
:1005100041F4801143F4801338D0A0FB02CE4FF099
:100520000005E1FB02E506F00042E0FB03E54FF0C9
:100530000006E1FB03569CF0000F18BF4EF0010EC1
:10054000A4F1FF04B6F5007F64F5407404D25FEABD
:100550004E0E6D4146EB060642EAC62141EA555170
:100560004FEAC52040EA5E504FEACE2EB4F1FD0CB2
:1005700088BFBCF5E06F1ED8BEF1004F08BF5FEA30
:10058000500E50F1000041EB045170BD06F00046E2
:1005900046EA010140EA020081EA0301B4EB5C048F
:1005A000C2BFD4EB0C0541EA045170BD41F4801187
:1005B0004FF0000E013C00F3AB8014F1360FDEBFAC
:1005C000002001F0004170BDC4F10004203C35DA88
:1005D0000C341BDC04F11404C4F1200500FA05F30B
:1005E00020FA04F001FA05F240EA020001F00042AC
:1005F00021F0004110EBD37021FA04F642EB060122
:100600005EEA430E08BF20EAD37070BDC4F10C044B
:10061000C4F1200500FA04F320FA05F001FA04F20F
:1006200040EA020001F0004110EBD37041F10001FB
:100630005EEA430E08BF20EAD37070BDC4F1200506
:1006400000FA05F24EEA020E20FA04F301FA05F26E
:1006500043EA020321FA04F001F0004121FA04F216
:1006600020EA020000EBD3705EEA430E08BF20EAE6
:10067000D37070BD94F0000F0FD101F00046400020
:1006800041EB010111F4801F08BF013CF7D041EAA2
:10069000060195F0000F18BF704703F000465200A6
:1006A00043EB030313F4801F08BF013DF7D043EA77
:1006B0000603704794EA0C0F0CEA135518BF95EA2D
:1006C0000C0F0CD050EA410618BF52EA4306D1D1B4
:1006D00081EA030101F000414FF0000070BD50EAD3
:1006E000410606BF1046194652EA430619D094EA5D
:1006F0000C0F02D150EA013613D195EA0C0F05D147
:1007000052EA03361CBF104619460AD181EA03019A
:1007100001F0004141F0FE4141F470014FF0000052
:1007200070BD41F0FE4141F4780170BD70B54FF0ED
:10073000FF0C4CF4E06C1CEA11541DBF1CEA13556D
:1007400094EA0C0F95EA0C0F00F0A7F8A4EB05044F
:1007500081EA030E52EA03354FEA013100F0888046
:100760004FEA03334FF0805545EA131343EA12630F
:100770004FEA022245EA111545EA10654FEA0026C4
:100780000EF000419D4208BF964244F1FD0404F57D
:10079000407402D25B084FEA3202B61A65EB0305D9
:1007A0005B084FEA32024FF480104FF4002CB6EB96
:1007B000020E75EB030E22BFB61A754640EA0C0016
:1007C0005B084FEA3202B6EB020E75EB030E22BF56
:1007D000B61A754640EA5C005B084FEA3202B6EB97
:1007E000020E75EB030E22BFB61A754640EA9C0056
:1007F0005B084FEA3202B6EB020E75EB030E22BF26
:10080000B61A754640EADC0055EA060E18D04FEAE3
:10081000051545EA16754FEA06164FEAC30343EA83
:1008200052734FEAC2025FEA1C1CC0D111F4801F50
:100830000BD141EA00014FF000004FF0004CB6E749
:1008400011F4801F04BF01430020B4F1FD0C88BFE8
:10085000BCF5E06F3FF6AFAEB5EB030C04BFB6EBF3
:10086000020C5FEA500C50F1000041EB045170BDE6
:100870000EF0004E4EEA113114EB5C04C2BFD4EB13
:100880000C0541EA045170BD41F480114FF0000E97
:10089000013C90E645EA060E8DE60CEA135594EA13
:1008A0000C0F08BF95EA0C0F3FF43BAF94EA0C0F16
:1008B0000AD150EA01347FF434AF95EA0C0F7FF48B
:1008C00025AF104619462CE795EA0C0F06D152EADF
:1008D00003353FF4FDAE1046194622E750EA4106C3
:1008E00018BF52EA43067FF4C5AE50EA41047FF4D4
:1008F0000DAF52EA43057FF4EBAE12E74FF0FF3C39
:1009000006E000BF4FF0010C02E000BF4FF0010C09
:100910004DF804CD4FEA410C7FEA6C5C4FEA430C82
:1009200018BF7FEA6C5C1BD001B050EA410C0CBFD1
:1009300052EA430C91EA030F02BF90EA020F002033
:10094000704710F1000F91EA030F58BF994208BF9A
:1009500090422CBFD8176FEAE37040F00100704757
:100960004FEA410C7FEA6C5C02D150EA013C07D1AE
:100970004FEA430C7FEA6C5CD6D152EA033CD3D0F9
:100980005DF8040B704700BF8446104662468C46F3
:100990001946634600E000BF01B5FFF7B7FF002826
:1009A00048BF10F1000F01BD4DF808EDFFF7F4FF4F
:1009B0000CBF012000205DF808FB00BF4DF808EDDA
:1009C000FFF7EAFF34BF012000205DF808FB00BFFD
:1009D0004DF808EDFFF7E0FF94BF012000205DF81F
:1009E00008FB00BF4DF808EDFFF7CEFF94BF0120D4
:1009F00000205DF808FB00BF4DF808EDFFF7C4FFCD
:100A000034BF012000205DF808FB00BF4FEA410C15
:100A10007FEA6C5C02D150EA013C0AD14FEA430CF8
:100A20007FEA6C5C02D152EA033C02D14FF0000035
:100A300070474FF0010070474FEA410212F5001273
:100A400015D211D56FF47873B3EB625212D94FEA15
:100A5000C12343F0004343EA505311F0004F23FAFF
:100A600002F018BF404270474FF00000704750EA54
:100A7000013005D111F0004008BF6FF00040704711
:100A80004FF00000704700BF4A0011D212F500126B
:100A900011D20DD56FF47873B3EB62520ED44FEAD6
:100AA000C12343F0004343EA505323FA02F0704756
:100AB0004FF00000704750EA013002D14FF0FF3094
:100AC00070474FF0000070474FEA4102B2F1E04337
:100AD00024BFB3F5001CDCF1FE5C0DD901F0004C25
:100AE0004FEAC0024CEA5070B2F1004F40EB830075
:100AF00008BF20F00100704711F0804F21D113F1A1
:100B00003872BCBF01F00040704741F480114FEAD9
:100B10005252C2F11802C2F1200C10FA0CF320FA62
:100B200002F018BF40F001004FEAC1234FEAD3237F
:100B300003FA0CFC40EA0C0023FA02F34FEA4303E9
:100B4000CCE77FEA625307D150EA01331EBF4FF072
:100B5000FE4040F44000704701F0004040F0FE408D
:100B600040F40000704700BF38B505460C4600222F
:100B7000002328462146FFF721FF28B928462146B1
:100B8000BDE8384000F00AB8284604F1004100F002
:100B900005F8404261EB410138BD00BFD0B50022ED
:100BA0000B4B06460F46FFF797FCFFF76DFF044619
:100BB000FFF718FC0022074BFFF78EFC02460B469E
:100BC00030463946FFF7D0FAFFF75EFF2146D0BD29
:100BD0000000F03D0000F04180B500AF00224FF46E
:100BE0008051044801F07CFD012001F011FA00BFA2
:100BF00080BD00BF000C014080B500AF01224FF462
:100C00008051044801F06CFD012001F001FA00BFA1
:100C100080BD00BF000C014080B582B000AF03462C
:100C2000FB7100BF084B1B689B6803F00203022B9B
:100C3000F8D1F91D64230122034802F017FA00BF1E
:100C40000837BD4680BD00BF1002002080B582B0CD
:100C500000AF78600B467B8000BF084B1B689B6829
:100C600003F00203022BF8D17A88642379680348E1
:100C700002F0FCF900BF0837BD4680BD100200201D
:100C800080B584B002AFFF23FB7100BF094B1B6826
:100C90009B6803F00203022BF8D1BA1DF91D6423EF
:100CA00000930123034802F024FBBB791846083760
:100CB000BD4680BD1002002080B582B000AF7860D4
:100CC000FFF7DEFF03461A467B681A7000BF08373D
:100CD000BD4680BD80B582B000AF0A4B4FF4FA72BA
:100CE0001A80FFF7CDFF0346FB71FB79FF2B03D082
:100CF000044B1B88002BF4D1FB7918460837BD46FE
:100D000080BD00BF0A02002080B584B000AF41F66C
:100D1000FF73FB60FFF770FF0023BB6005E0FF205F
:100D2000FFF77AFFBB680133BB60BB68092BF6DDB8
:100D3000FFF752FF40233B7000237B700023BB7002
:100D40000023FB7000233B7195237B713B460621FA
:100D50001846FFF77BFF02E0FB68013BFB60FFF7F3
:100D60008FFF0346012B02D0FB68002BF4D1FFF765
:100D700043FFFF20FFF750FF034B01221A7000BF13
:100D80001037BD4680BD00BF0D02002080B400AF0B
:100D9000034B00221A7000BFBD4680BC704700BFE5
:100DA0000D02002080B400AF024B1B781846BD46F0
:100DB00080BC70470D02002080B584B000AF786021
:100DC0003960134BC8221A80FFF75AFF0346FB73A2
:100DD000FB7BFF2B03D10E4B1B88002BF4D1FB7B3D
:100DE000FE2B01D000230FE07B685A1C7A60184666
:100DF000FFF762FF3B685A1E3A60002BF4D1FFF701
:100E00003FFFFFF73DFF012318461037BD4680BD69
:100E10000802002080B584B000AF78600B46FB70FC
:100E20000023BB73FFF756FF0346FF2B01D00023BF
:100E30002FE0FB781846FFF7EFFEFB78FD2B20D064
:100E40004FF400717868FFF701FFFFF719FFFFF714
:100E500017FF0BE0FFF714FF0346FB73FB7B03F068
:100E60001F03052B06D0BB7B0133BB73BB7B402B21
:100E7000F0D900E000BF00BFFFF702FF0346002BE0
:100E8000FAD0FB7B03F01F03052B01D1012300E007
:100E9000002318461037BD4680BD80B584B000AF32
:100EA00003463960FB71FFF715FF0346FF2B01D0A6
:100EB000FF2342E0FB791846FFF7AEFE3B681B0EAE
:100EC000DBB21846FFF7A8FE3B681B0CDBB21846E6
:100ED000FFF7A2FE3B681B0ADBB21846FFF79CFE39
:100EE0003B68DBB21846FFF797FEFB79402B02D137
:100EF0009523FB7307E0FB79482B02D18723FB7313
:100F000001E00123FB73FB7B1846FFF785FEFB79AD
:100F10004C2B01D1FFF7B4FE0A23BB73FFF7B0FEE1
:100F200003467B7397F90D30002B05DABB7B013B41
:100F3000BB73BB7B002BF1D17B7B18461037BD46C2
:100F400080BD000090B585B000AF0346FB71FB7912
:100F5000002B01D00123D1E06A4B1B78DBB203F0F8
:100F60000203002B03D0674B1B78DBB2C6E0FFF710
:100F7000CBFEFFF731FE0023BB7300214020FFF7BB
:100F80008CFF0346012B40F0A1805F4B4FF47A7237
:100F90001A804FF4D5714820FFF77FFF0346012BDD
:100FA00055D10023FB730CE0FC7BFFF769FE034681
:100FB0001A4604F110033B4403F8082CFB7B013371
:100FC000FB73FB7B032BEFD9BB7A012B7ED1FB7A22
:100FD000AA2B7BD100217720FFF75FFF0346012B6F
:100FE00007D84FF080416920FFF757FF0346002BD9
:100FF00004D0454B1B88002BECD100E000BF424BD6
:101000001B88002B62D000217A20FFF746FF0346A1
:10101000002B5BD10023FB730CE0FC7BFFF730FE61
:1010200003461A4604F110033B4403F8082CFB7BEB
:101030000133FB73FB7B032BEFD93B7A03F04003B7
:10104000002B01D00C2300E00423BB733EE0002101
:101050007720FFF722FF0346012B08D800216920E3
:10106000FFF71BFF0346012B01D8022300E00123F9
:10107000BB73BB7B022B0ED100217720FFF70DFF46
:101080000346012B0ED800216920FFF706FF034617
:10109000002B07D10CE000214120FFF7FEFE0346A4
:1010A000002B04D0184B1B88002BE2D100E000BFBE
:1010B000154B1B88002B07D04FF400715020FFF711
:1010C000ECFE0346002B01D00023BB730F4ABB7B11
:1010D0001370FFF791FDFFF7D3FDBB7B002B08D00A
:1010E000084B1B78DBB223F00103DAB2054B1A7010
:1010F00001E0FFF74BFE034B1B78DBB218461437B9
:10110000BD4690BD00000020080200200C02002017
:1011100080B483B000AF0346FB71FB79002B01D094
:10112000012302E0034B1B78DBB218460C37BD46A7
:1011300080BC70470000002080B584B000AFB9606B
:101140007A603B600346FB73FB7B002B02D13B685C
:10115000002B01D1042351E02A4B1B78DBB203F0B2
:101160000103002B01D0032348E0274B1B7803F039
:101170000403002B02D17B685B027B60FFF72CFD30
:101180003B68012B11D179685120FFF786FE034699
:10119000002B29D14FF40071B868FFF70DFE03460C
:1011A000002B21D000233B601EE079685220FFF71E
:1011B00074FE0346002B17D14FF40071B868FFF797
:1011C000FBFD0346002B0AD0BB6803F50073BB6030
:1011D0003B68013B3B603B68002BEDD100E000BF6A
:1011E00000214C20FFF759FEFFF706FDFFF748FDF1
:1011F0003B68002B14BF01230023DBB218461037D5
:10120000BD4680BD000000200C02002080B584B0E7
:1012100000AFB9607A603B600346FB73FB7B002B39
:1012200002D13B68002B01D104236BE0374B1B78C4
:10123000DBB203F00103002B01D0032362E0334B48
:101240001B78DBB203F00403002B01D0022359E02A
:101250002F4B1B7803F00403002B02D17B685B0249
:101260007B60FFF7B9FC3B68012B10D179685820EF
:10127000FFF713FE0346002B3AD1FE21B868FFF7B3
:10128000C9FD0346002B33D000233B6030E0204BE8
:101290001B7803F00203002B07D000217720FFF713
:1012A000FCFD39685720FFF7F8FD79685920FFF7F2
:1012B000F4FD0346002B1BD1FC21B868FFF7AAFD03
:1012C0000346002B0AD0BB6803F50073BB603B6884
:1012D000013B3B603B68002BEED100E000BFFD21ED
:1012E0000020FFF797FD0346002B01D101233B604F
:1012F000FFF782FCFFF7C4FC3B68002B14BF0123FF
:101300000023DBB218461037BD4680BD0000002028
:101310000C02002090B58BB000AF03463A60FB7121
:101320000B46BB713B683B62FB79002B01D0042369
:1013300015E1012387F82730BB79052B24D13B6ABF
:101340001B78022B12D0022B1ADC002B02D0012BAF
:1013500006D015E0FFF71AFD002387F82730FCE0E0
:10136000FFF7D2FC002387F82730F6E03B6A5C1CCD
:10137000FFF718FD03462370002387F82730ECE0C1
:10138000042387F82730E8E0774B1B78DBB203F0C3
:101390000103002B01D00323E1E0FFF71DFCBB7923
:1013A0000D2B00F2CB8001A252F823F0A714000805
:1013B000E5130008971400083D1500083D150008C6
:1013C0003D1500083D1500083D1500083D150008B5
:1013D0003D1500083D150008B9140008DD1400088B
:1013E0000115000800214920FFF757FD0346002B97
:1013F00040F0A88007F10C0310211846FFF7DCFC31
:101400000346002B00F09E803B7B9B09DBB2012B47
:101410000ED17B7D9AB23B7D9BB21B029BB21344E3
:101420009BB20133FB83FB8B9A023B681A602EE070
:101430007B7C03F00F03DAB2BB7DDB09DBB2134424
:10144000DAB27B7D5B00DBB203F00603DBB2134450
:10145000DBB2023387F826303B7D9B09DBB29AB2C0
:10146000FB7C9BB29B009BB213449AB2BB7C9B0259
:101470009BB203F440639BB213449BB20133FB83E2
:10148000FA8B97F82630093B9A403B681A60002394
:1014900087F8273056E03B684FF400721A8000232B
:1014A00087F8273055E0FFF715FC0346FF2B4BD19B
:1014B000002387F8273047E000214920FFF7EDFCA3
:1014C0000346002B42D11021386AFFF775FC034612
:1014D000002B3BD0002387F8273037E000214A203B
:1014E000FFF7DBFC0346002B32D11021386AFFF7EF
:1014F00063FC0346002B2BD0002387F8273027E01E
:1015000000217A20FFF7C9FC0346002B16D10023E7
:1015100087F826300BE03C6A631C3B62FFF7B0FBA8
:101520000346237097F82630013387F8263097F862
:101530002630032BEFD9002387F82730042387F8C0
:10154000273006E000BF04E000BF02E000BF00E07B
:1015500000BFFFF751FBFFF793FB97F827301846C2
:101560002C37BD4690BD00BF0000002000000000E9
:1015700080B584B000AF4C23FB603023BB60284BA8
:101580007B6000F0E3FC00F057F800F0FBF800F09F
:1015900099F800F0CDF802F035FE4FF4FA7000F043
:1015A00037FD204B1B781A4602211F4800F06EF9C8
:1015B000FB680133FB60BB680133BB607868FEF7F2
:1015C00033FF15A3D3E90023FEF7D0FD02460B46F7
:1015D00010461946FFF778FA03467B60BB68013373
:1015E000BB6000F00BFD03461A461049104807F097
:1015F000DBFF0C4B1B781A4601210D4800F046F921
:10160000FA2000F005FD4FF480710A4801F080F8DF
:10161000CEE700BFAFF30080C3F5285C8FC2C53FA3
:101620008FC25540F7020020B0020020D0CD000844
:10163000D80200200008014080B590B000AF07F14B
:10164000180328220021184608F011F83B1D00223B
:101650001A605A609A60DA601A610123BB614FF424
:101660008033FB6100233B620123BB6202237B6367
:101670004FF48033BB634FF4E013FB6307F11803AF
:10168000184601F05FF80346002B01D000F050FA35
:101690000F237B600223BB600023FB604FF4806359
:1016A0003B6100237B613B1D0221184601F0CCFA0F
:1016B0000346002B01D000F03BFA00BF4037BD4687
:1016C00080BD000080B500AF174B184A1A60164B5A
:1016D0004FF482725A60144B00229A60124B00221F
:1016E000DA60114B00221A610F4B00225A610E4B37
:1016F0004FF400729A610C4B0022DA610A4B00220F
:101700001A62094B00225A62074B00229A62064B6A
:101710000A22DA62044801F025FC0346002B01D0BE
:1017200000F006FA00BF80BD100200200038004023
:1017300080B500AF114B124A1A60104B4FF4E132E2
:101740005A600E4B00229A600C4B0022DA600B4B61
:1017500000221A61094B0C225A61084B00229A613F
:10176000064B0022DA61054802F01AF80346002B06
:1017700001D000F0DDF900BF80BD00BF680200208D
:101780000038014080B588B000AF07F11003002297
:101790001A605A609A60DA60284B9B69274A43F0C6
:1017A00020039361254B9B6903F02003FB60FB68DA
:1017B000224B9B69214A43F0080393611F4B9B69AD
:1017C00003F00803BB60BB681C4B9B691B4A43F0DA
:1017D00004039361194B9B6903F004037B607B68EE
:1017E00000224FF48051164800F07AFF00224FF497
:1017F0008071144800F074FF4FF480533B61012363
:101800007B610023BB610223FB6107F110031946D2
:101810000B4800F0E1FD4FF480733B6101237B61D5
:101820000023BB610223FB6107F110031946054841
:1018300000F0D2FD00BF2037BD4680BD0010024041
:10184000000C01400008014080B483B000AF786014
:101850007B6818460C37BD4680BC704780B483B0A7
:1018600000AF6346C7F804C01B78002B03D0064BBB
:1018700000221A7002E0044B01221A7000BF0C37DC
:10188000BD4680BC704700BFF602002080B5ADF5B4
:10189000035D8CB000AF07F1F00343F8E40C07F1EF
:1018A000F00343F8E81C07F1F00343F8EC2C07F5CC
:1018B000035303F1380307F1F00242F8D03C07F577
:1018C000865303F11003183B01229149184605F095
:1018D00069F903461A4607F1F00303F8D42C07F11F
:1018E0003002183A07F130031C3B1946884806F0CD
:1018F000C6FC07F1F00353F8D83C03F580535B694D
:10190000023B07F1F00252F8D82C02F5805292788F
:1019100002FB03F31846FEF765FD4FF000027D4B16
:10192000FEF7DAFD02460B4610461946FFF7ACF803
:10193000034607F5035202F12C02136007F1F0038E
:1019400053F8D83C03F580539B781A4607F1F0030F
:1019500053F8DC3C02FB03F31846FEF743FD4FF05F
:1019600000026C4BFEF7B8FD02460B4610461946C6
:10197000FFF78AF8034607F5035202F128021360C5
:1019800007F1F00353F8E83C012B47D107F1F003CE
:1019900053F8EC2C6049614807F006FE07F1B003EC
:1019A000243B13225D49184605F046F903461A46C2
:1019B00007F1F00303F8D42C07F13003143B9C46E5
:1019C000FFF74CFF07F1F00353F8E42C5449534858
:1019D00007F0EAFD07F1F003D3F8A82F07F1B003F1
:1019E000243B1146184606F059F907F1F00353F865
:1019F000E40CFEF7ADFB024607F1B003283B07F10C
:101A0000F00107F1B000243851F8E41C05F014FE91
:101A100007F1B003243B184606F015F907F1F0036F
:101A200053F8E83C022B67D107F1B003243B0122B5
:101A30003C49184605F000F903461A4607F1F00341
:101A400003F8D42C07F13003143B9C46FFF706FF44
:101A500007F1B002243A07F130030C3B6421184629
:101A600006F0E7FC07F130030C3B184606F0E0FDFA
:101A70000346DAB22C4B1A7007F1B003243B184628
:101A800006F0E1F807F1B003243B0B222549184684
:101A900005F0D2F803461A4607F1F00303F8D42CF8
:101AA00007F13003143B9C46FFF7D8FE07F1F00323
:101AB000D3F8A82F07F1B003243B1146184606F0CF
:101AC000EDF8194B1B7801331A461849134807F0F3
:101AD0006BFD1248FEF73CFB024607F1B003283BC2
:101AE00007F1B00024380D4905F0A6FD07F1B00359
:101AF000243B184606F0A7F800220549002005F00F
:101B000051F800BF07F503573037BD4680BD00BF11
:101B1000D8CD00080000E03FDCCD0008B002002076
:101B2000E8CD0008F4CD0008F702002000CE000840
:101B300080B400AF72B600BFFEE7000080B485B08D
:101B400000AF154B9B69144A43F001039361124B9C
:101B50009B6903F00103BB60BB680F4BDB690E4A56
:101B600043F08053D3610C4BDB6903F080537B60FF
:101B70007B680A4B5B68FB60FB6823F0E063FB60FB
:101B8000FB6843F00073FB60044AFB68536000BFCE
:101B90001437BD4680BC7047001002400000014071
:101BA00080B588B000AF786007F1100300221A609A
:101BB0005A609A60DA607B681B681C4A934231D194
:101BC0001B4BDB691A4A43F48043D361184BDB6932
:101BD00003F48043FB60FB68154B9B69144A43F098
:101BE00008039361124B9B6903F00803BB60BB6859
:101BF0004FF420433B6102237B610323FB6107F128
:101C0000100319460B4800F0E7FB4FF480433B619B
:101C100000237B610023BB6107F1100319460548CF
:101C200000F0DAFB00BF2037BD4680BD0038004021
:101C300000100240000C014080B588B000AF786011
:101C400007F1100300221A605A609A60DA607B681C
:101C50001B68204A934239D11F4B9B691E4A43F4AB
:101C6000804393611C4B9B6903F48043FB60FB68DA
:101C7000194B9B69184A43F004039361164B9B6907
:101C800003F00403BB60BB684FF400733B610223A5
:101C90007B610323FB6107F1100319460F4800F035
:101CA0009BFB4FF480633B6100237B610023BB619E
:101CB00007F110031946094800F08EFB00220021AD
:101CC000252000F0A0FA252000F0B9FA00BF203747
:101CD000BD4680BD003801400010024000080140B0
:101CE00080B400AFFEE780B400AFFEE780B400AF81
:101CF000FEE780B400AFFEE780B400AFFEE780B43B
:101D000000AF00BFBD4680BC704780B400AF00BFCD
:101D1000BD4680BC704780B400AF00BFBD4680BCEC
:101D20007047000080B500AF0B4B1B88002B05D01F
:101D3000094B1B88013B9AB2074B1A80074B1B8843
:101D4000002B05D0054B1B88013B9AB2034B1A8030
:101D500000F042F900BF80BD080200200A02002006
:101D600080B500AF024801F06BFD00BF80BD00BF31
:101D70006802002080B400AF01231846BD4680BC35
:101D8000704780B582B000AF7860396007F0C2FC60
:101D9000034616221A604FF0FF3318460837BD4637
:101DA00080BD80B582B000AF78604FF0FF317868B9
:101DB000FFF7E7FFFEE780B586B000AFF860B960D7
:101DC0007A6000237B610AE0AFF300800146BB68C4
:101DD0005A1CBA60CAB21A707B6901337B617A6996
:101DE0007B689A42F0DB7B6818461837BD4680BD99
:101DF00080B586B000AFF860B9607A6000237B617F
:101E000009E0BB685A1CBA601B781846FFF71CFD36
:101E10007B6901337B617A697B689A42F1DB7B687D
:101E200018461837BD4680BD80B483B000AF7860D7
:101E30004FF0FF3318460C37BD4680BC704780B466
:101E400083B000AF786039603B684FF400525A604D
:101E5000002318460C37BD4680BC704780B483B061
:101E600000AF7860012318460C37BD4680BC704730
:101E700080B485B000AFF860B9607A60002318467E
:101E80001437BD4680BC704780B586B000AF78601F
:101E9000144A154BD31A7B617B693B61134B1B685A
:101EA000002B02D1114B124A1A60104B1A687B6842
:101EB00013443A699A4207D207F02CFC03460C22DD
:101EC0001A604FF0FF3309E0084B1B68FB60074BBB
:101ED0001A687B681344054A1360FB681846183774
:101EE000BD4680BD0050002000040000F802002024
:101EF0008006002080B400AF00BFBD4680BC7047A4
:101F0000FFF7F8FF0B480C490C4A002302E0D458B5
:101F1000C4500433C4188C42F9D3094A094C002335
:101F200001E013600432A242FBD307F0F9FBFFF794
:101F30001FFB704700000020EC010020F8D70008CC
:101F4000EC01002080060020FEE7000080B500AF15
:101F5000084B1B68074A43F010031360032000F08E
:101F600047F90F2000F008F8FFF7E8FD00231846B6
:101F700080BD00BF0020024080B582B000AF786015
:101F8000124B1A68124B1B7819464FF47A73B3FB45
:101F9000F1F3B2FBF3F3184600F05FF90346002BB0
:101FA00001D001230EE07B680F2B0AD8002279684C
:101FB0004FF0FF3000F027F9064A7B6813600023DA
:101FC00000E0012318460837BD4680BD040000200C
:101FD0000C0000200800002080B400AF054B1B78E7
:101FE0001A46054B1B681344034A136000BFBD46E5
:101FF00080BC70470C000020FC02002080B400AFC1
:10200000024B1B681846BD4680BC7047FC0200208E
:1020100080B584B000AF7860FFF7F0FFB8607B68F0
:10202000FB60FB68B3F1FF3F05D00A4B1B781A46F3
:10203000FB681344FB6000BFFFF7E0FF0246BB688C
:10204000D31AFA689A42F7D800BF00BF1037BD46CE
:1020500080BD00BF0C00002080B485B000AF786068
:102060007B6803F00703FB600C4BDB68BB60BA685E
:102070004FF6FF031340BB60FB681A02BB681343B3
:1020800043F0BF6343F40033BB60044ABB68D360D2
:1020900000BF1437BD4680BC704700BF00ED00E0B4
:1020A00080B400AF044BDB681B0A03F0070318463B
:1020B000BD4680BC704700BF00ED00E080B483B037
:1020C00000AF0346FB7197F90730002B0BDBFB7960
:1020D00003F01F02064997F907305B09012000FA57
:1020E00002F241F8232000BF0C37BD4680BC704788
:1020F00000E100E080B483B000AF03463960FB71BB
:1021000097F90730002B0ADB3B68DAB20C4997F9E4
:1021100007301201D2B20B4483F800230AE03B6877
:10212000DAB20849FB7903F00F03043B1201D2B283
:102130000B441A7600BF0C37BD4680BC704700BF09
:1021400000E100E000ED00E080B489B000AFF8608D
:10215000B9607A60FB6803F00703FB61FB69C3F1B8
:102160000703042B28BF0423BB61FB690433062B40
:1021700002D9FB69033B00E000237B614FF0FF3293
:10218000BB6902FA03F3DA43BB681A407B699A40E1
:102190004FF0FF317B6901FA03F3D9437B680B40B1
:1021A000134318462437BD4680BC704780B582B0C3
:1021B00000AF78607B68013BB3F1807F01D30123DE
:1021C0000FE00A4A7B68013B53600F214FF0FF305C
:1021D000FFF790FF054B00229A60044B07221A601C
:1021E000002318460837BD4680BD00BF10E000E060
:1021F00080B582B000AF78607868FFF72DFF00BF30
:102200000837BD4680BD80B586B000AF0346B960D3
:102210007A60FB7300237B61FFF742FF78617A6885
:10222000B9687869FFF790FF024697F90F301146B9
:102230001846FFF75FFF00BF1837BD4680BD80B569
:1022400082B000AF0346FB7197F907301846FFF7DD
:1022500035FF00BF0837BD4680BD80B582B000AFF6
:1022600078607868FFF7A2FF034618460837BD4636
:1022700080BD80B485B000AF78600023FB737B68BD
:1022800093F82130DBB2022B08D07B6804229A63DA
:102290007B68002283F82020012320E07B681B68F4
:1022A0001A687B681B6822F00E021A607B681B6844
:1022B0001A687B681B6822F001021A607B681A6C3E
:1022C0007B68DB6B012101FA02F25A607B68012214
:1022D00083F821207B68002283F82020FB7B1846AE
:1022E0001437BD4680BC704780B584B000AF7860BD
:1022F0000023FB737B6893F82130DBB2022B05D0FF
:102300007B6804229A630123FB7351E07B681B689E
:102310001A687B681B6822F00E021A607B681B68D3
:102320001A687B681B6822F001021A607B681B68D0
:10233000224A934229D07B681B68214A934222D0CB
:102340007B681B681F4A93421AD07B681B681E4A31
:10235000934212D07B681B681C4A93420AD07B6868
:102360001B681B4A934202D14FF480130EE04FF0DA
:1023700080730BE04FF4803308E04FF4805305E0A6
:102380004FF4807302E0102300E00123114A5360F0
:102390007B68012283F821207B68002283F82020BB
:1023A0007B685B6B002B03D07B685B6B786898471E
:1023B000FB7B18461037BD4680BD00BF08000240B9
:1023C0001C0002403000024044000240580002401D
:1023D0006C0002400000024080B48BB000AF786017
:1023E000396000237B6200233B6269E101227B6A42
:1023F00002FA03F3FB613B681B68FA691340BB6197
:10240000BA69FB699A4240F058813B685B689A4A16
:1024100093425ED0984A934275D8984A934258D0D6
:10242000964A93426FD8964A934252D0944A934226
:1024300069D8944A93424CD0924A934263D8924AC4
:10244000934246D0904A93425DD8122B2AD8122B41
:1024500059D801A252F823F0D3240008AD24000873
:10246000BF240008012500080725000807250008EB
:10247000072500080725000807250008072500088C
:10248000072500080725000807250008072500087C
:10249000072500080725000807250008B5240008BF
:1024A000C9240008794A934213D02CE03B68DB68CA
:1024B0003B6229E03B68DB6804333B6224E03B6815
:1024C000DB6808333B621FE03B68DB680C333B6230
:1024D0001AE03B689B68002B02D104233B6213E0A7
:1024E0003B689B68012B05D108233B627B68FA6936
:1024F0001A6109E008233B627B68FA695A6103E0CC
:1025000000233B6200E000BFBB69FF2B01D87B6862
:1025100001E07B6804337B61BB69FF2B02D87B6AD7
:102520009B0002E07B6A083B9B003B617B691A6869
:102530000F213B6901FA03F3DB431A40396A3B6917
:1025400001FA03F31A437B691A603B685B6803F086
:102550008053002B00F0B1804D4B9B694C4A43F0F7
:10256000010393614A4B9B6903F00103BB60BB68A5
:10257000484A7B6A9B08023352F82330FB607B6A2F
:1025800003F003039B000F2202FA03F3DB43FA6814
:102590001340FB607B68404A934213D07B683F4AFC
:1025A00093420DD07B683E4A934207D07B683D4AF8
:1025B000934201D1032306E0042304E0022302E056
:1025C000012300E000237A6A02F0030292009340A4
:1025D000FA681343FB602F497B6A9B080233FA6851
:1025E00041F823203B685B6803F48013002B06D07E
:1025F0002D4B9A682C49BB6913438B6006E02A4B2C
:102600009A68BB69DB43284913408B603B685B6871
:1026100003F40013002B06D0234BDA682249BB6970
:102620001343CB6006E0204BDA68BB69DB431E49ED
:102630001340CB603B685B6803F40033002B06D08B
:10264000194B5A681849BB6913434B6006E0164B97
:102650005A68BB69DB43144913404B603B685B68B5
:1026600003F48033002B21D00F4B1A680E49BB694D
:1026700013430B6021E000BF000032100000311056
:1026800000002210000021100000121000001110A4
:10269000001002400000014000080140000C014011
:1026A0000010014000140140000401400B4B1A6867
:1026B000BB69DB43094913400B607B6A01337B62D2
:1026C0003B681A687B6A22FA03F3002B7FF48EAE14
:1026D00000BF00BF2C37BD4680BC704700040140DE
:1026E00080B483B000AF78600B467B8013467B706C
:1026F0007B78002B03D07A887B681A6103E07B88A3
:102700001A047B681A6100BF0C37BD4680BC704755
:1027100080B485B000AF78600B467B807B68DB6857
:10272000FB607A88FB6813401A04FB68D9437B88F6
:102730000B401A437B681A6100BF1437BD4680BC4A
:102740007047000080B586B000AF78607B68002BD2
:1027500001D1012372E27B681B6803F00103002BA7
:1027600000F08780924B5B6803F00C03042B0CD0C5
:102770008F4B5B6803F00C03082B12D18C4B5B680A
:1027800003F48033B3F5803F0BD1894B1B6803F40E
:102790000033002B6CD07B685B68002B68D1012371
:1027A0004CE27B685B68B3F5803F06D1804B1B68C9
:1027B0007F4A43F4803313602EE07B685B68002B14
:1027C0000CD17B4B1B687A4A23F480331360784B1F
:1027D0001B68774A23F4802313601DE07B685B68E5
:1027E000B3F5A02F0CD1724B1B68714A43F48023C0
:1027F00013606F4B1B686E4A43F4803313600BE029
:102800006B4B1B686A4A23F480331360684B1B6868
:10281000674A23F4802313607B685B68002B13D026
:10282000FFF7ECFB386108E0FFF7E8FB02463B6985
:10283000D31A642B01D9032300E25D4B1B6803F418
:102840000033002BF0D014E0FFF7D8FB386108E02C
:10285000FFF7D4FB02463B69D31A642B01D903234B
:10286000ECE1534B1B6803F40033002BF0D100E084
:1028700000BF7B681B6803F00203002B63D04C4B46
:102880005B6803F00C03002B0BD0494B5B6803F033
:102890000C03082B1CD1464B5B6803F48033002BE0
:1028A00016D1434B1B6803F00203002B05D07B6855
:1028B0001B69012B01D00123C0E13D4B1B6823F0B4
:1028C000F8027B685B69DB00394913430B603AE02F
:1028D0007B681B69002B20D0364B01221A60FFF762
:1028E0008DFB386108E0FFF789FB02463B69D31A8C
:1028F000022B01D90323A1E12D4B1B6803F0020336
:10290000002BF0D02A4B1B6823F0F8027B685B6930
:10291000DB00274913430B6015E0264B00221A60A9
:10292000FFF76CFB386108E0FFF768FB02463B6984
:10293000D31A022B01D9032380E11D4B1B6803F03E
:102940000203002BF0D17B681B6803F00803002B07
:102950003AD07B689B69002B19D0174B01221A6073
:10296000FFF74CFB386108E0FFF748FB02463B6984
:10297000D31A022B01D9032360E10D4B5B6A03F0EC
:102980000203002BF0D0012000F0CEFA1CE00A4B2D
:1029900000221A60FFF732FB38610FE0FFF72EFBD1
:1029A00002463B69D31A022B08D9032346E100BF34
:1029B000001002400000424280044242924B5B6A97
:1029C00003F00203002BE9D17B681B6803F00403CA
:1029D000002B00F0A6800023FB758B4BDB6903F016
:1029E0008053002B0DD1884BDB69874A43F080531D
:1029F000D361854BDB6903F08053BB60BB68012367
:102A0000FB75824B1B6803F48073002B18D17F4B3E
:102A10001B687E4A43F480731360FFF7EFFA386156
:102A200008E0FFF7EBFA02463B69D31A642B01D9A1
:102A3000032303E1754B1B6803F48073002BF0D074
:102A40007B68DB68012B06D16F4B1B6A6E4A43F033
:102A5000010313622DE07B68DB68002B0CD16A4B0D
:102A60001B6A694A23F001031362674B1B6A664ABB
:102A700023F0040313621CE07B68DB68052B0CD198
:102A8000614B1B6A604A43F0040313625E4B1B6A8E
:102A90005D4A43F0010313620BE05B4B1B6A5A4A29
:102AA00023F001031362584B1B6A574A23F00403B7
:102AB00013627B68DB68002B15D0FFF79FFA386143
:102AC0000AE0FFF79BFA02463B69D31A41F28832CB
:102AD000934201D90323B1E04B4B1B6A03F002037D
:102AE000002BEED014E0FFF789FA38610AE0FFF717
:102AF00085FA02463B69D31A41F28832934201D9E2
:102B000003239BE0404B1B6A03F00203002BEED132
:102B1000FB7D012B05D13C4BDB693B4A23F0805305
:102B2000D3617B68DB69002B00F08780364B5B68E4
:102B300003F00C03082B61D07B68DB69022B46D1C4
:102B4000334B00221A60FFF759FA386108E0FFF7AB
:102B500055FA02463B69D31A022B01D903236DE0D3
:102B6000294B1B6803F00073002BF0D17B681B6AB4
:102B7000B3F5803F08D1244B5B6823F400327B68B7
:102B80009B68214913434B601F4B5B6823F474120D
:102B90007B68196A7B685B6A0B431B4913434B6074
:102BA0001B4B01221A60FFF729FA386108E0FFF792
:102BB00025FA02463B69D31A022B01D903233DE0D3
:102BC000114B1B6803F00073002BF0D035E0104B65
:102BD00000221A60FFF712FA386108E0FFF70EFAD8
:102BE00002463B69D31A022B01D9032326E0064B88
:102BF0001B6803F00073002BF0D11EE07B68DB69DB
:102C0000012B07D1012319E00010024000700040A1
:102C1000600042420B4B5B68FB60FB6803F4803250
:102C20007B681B6A9A4206D1FB6803F470127B68CA
:102C30005B6A9A4201D0012300E00023184618374E
:102C4000BD4680BD0010024080B584B000AF786002
:102C500039607B68002B01D10123D0E06A4B1B68EF
:102C600003F007033A689A4210D9674B1B6823F0B8
:102C7000070265493B6813430B60634B1B6803F015
:102C800007033A689A4201D00123B8E07B681B68C9
:102C900003F00203002B20D07B681B6803F00403C1
:102CA000002B05D0594B5B68584A43F4E0635360EE
:102CB0007B681B6803F00803002B05D0534B5B684F
:102CC000524A43F460535360504B5B6823F0F00268
:102CD0007B689B684D4913434B607B681B6803F01E
:102CE0000103002B40D07B685B68012B07D1474B69
:102CF0001B6803F40033002B15D101237FE07B68B0
:102D00005B68022B07D1414B1B6803F00073002B5B
:102D100009D1012373E03D4B1B6803F00203002B34
:102D200001D101236BE0394B5B6823F003027B6820
:102D30005B68364913434B60FFF760F9F8600AE0BF
:102D4000FFF75CF90246FB68D31A41F288329342DE
:102D500001D9032353E02D4B5B6803F00C027B6821
:102D60005B689B009A42EBD1274B1B6803F007037B
:102D70003A689A4210D2244B1B6823F0070222497A
:102D80003B6813430B60204B1B6803F007033A6852
:102D90009A4201D0012332E07B681B6803F00403F0
:102DA000002B08D0194B5B6823F4E0627B68DB687A
:102DB000164913434B607B681B6803F00803002B24
:102DC00009D0124B5B6823F460527B681B69DB00FF
:102DD0000E4913434B6000F021F802460B4B5B6831
:102DE0001B0903F00F030A49CB5C22FA03F3094ADB
:102DF0001360094B1B681846FFF7BEF800231846FE
:102E00001037BD4680BD00BF0020024000100240C8
:102E10004CCE0008040000200800002080B487B0D9
:102E200000AF0023FB600023BB6000237B61002315
:102E30007B6000233B611E4B5B68FB60FB6803F01B
:102E40000C03042B02D0082B03D027E0194B3B6165
:102E500027E0FB689B0C03F00F03174AD35C7B60F1
:102E6000FB6803F48033002B10D0114B5B685B0CC4
:102E700003F00103114AD35CBB607B680D4A03FB7E
:102E800002F2BB68B2FBF3F37B6104E07B680C4A9F
:102E900002FB03F37B617B693B6102E0054B3B6115
:102EA00000BF3B6918461C37BD4680BC704700BF59
:102EB0000010024000127A0064CE000874CE0008B0
:102EC00000093D0080B400AF024B1B681846BD46A8
:102ED00080BC70470400002080B500AFFFF7F2FF10
:102EE0000246054B5B681B0A03F007030349CB5CF2
:102EF00022FA03F3184680BD001002405CCE0008A1
:102F000080B500AFFFF7DEFF0246054B5B68DB0ACA
:102F100003F007030349CB5C22FA03F3184680BD94
:102F2000001002405CCE000880B485B000AF78602D
:102F30000A4B1B680A4AA2FB03235B0A7A6802FB5E
:102F400003F3FB6000BFFB685A1EFA60002BF9D147
:102F500000BF00BF1437BD4680BC7047040000208E
:102F6000D34D621080B582B000AF78607B68002BD3
:102F700001D1012376E07B685B6A002B08D17B6876
:102F80005B68B3F5827F09D07B680022DA6105E0D7
:102F90007B6800221A617B6800225A617B680022EC
:102FA0009A627B6893F85130DBB2002B06D17B68C4
:102FB000002283F850207868FEF7F2FD7B68022239
:102FC00083F851207B681B681A687B681B6822F0B5
:102FD00040021A607B685B6803F482727B689B68BE
:102FE00003F404431A437B68DB6803F400631A4369
:102FF0007B681B6903F002031A437B685B6903F07B
:1030000001031A437B689B6903F400731A437B68CE
:10301000DB6903F038031A437B681B6A03F0800303
:1030200042EA03017B689B6A03F400527B681B68D9
:103030000A431A607B689B691A0C7B681B6802F064
:1030400004025A607B681B68DA697B681B6822F49B
:103050000062DA617B6800225A657B68012283F88E
:103060005120002318460837BD4680BD80B588B082
:1030700000AFF860B9603B601346FB800023FB772C
:10308000FB6893F85030012B01D102232DE1FB683E
:10309000012283F85020FEF7B1FFB861FB88FB8264
:1030A000FB6893F85130DBB2012B02D00223FB778F
:1030B00016E1BB68002B02D0FB88002B02D1012354
:1030C000FB770DE1FB68032283F85120FB680022A7
:1030D0005A65FB68BA681A63FB68FA889A86FB68C7
:1030E000FA88DA86FB6800229A63FB6800229A87D6
:1030F000FB680022DA87FB6800225A64FB68002222
:103100001A64FB689B68B3F5004F0FD1FB681B681E
:103110001A68FB681B6822F040021A60FB681B6893
:103120001A68FB681B6842F480421A60FB681B68DF
:103130001B6803F04003402B07D0FB681B681A682C
:10314000FB681B6842F040021A60FB68DB68B3F55D
:10315000006F4FD1FB685B68002B02D0FB8A012B0C
:1031600042D1FB681B6B1A88FB681B68DA60FB683E
:103170001B6B9A1CFB681A63FB68DB8E9BB2013BDE
:103180009AB2FB68DA862FE0FB681B689B6803F045
:103190000203022B12D1FB681B6B1A88FB681B68A9
:1031A000DA60FB681B6B9A1CFB681A63FB68DB8E9A
:1031B0009BB2013B9AB2FB68DA8615E0FEF71EFF70
:1031C0000246BB69D31A3A689A4203D83B68B3F106
:1031D000FF3F02D13B68002B06D10323FB77FB683E
:1031E000012283F851207BE0FB68DB8E9BB2002B31
:1031F000CAD150E0FB685B68002B02D0FB8A012B30
:1032000044D1FB681A6BFB681B680C3312781A7088
:10321000FB681B6B5A1CFB681A63FB68DB8E9BB256
:10322000013B9AB2FB68DA8630E0FB681B689B685A
:1032300003F00203022B13D1FB681A6BFB681B68B7
:103240000C3312781A70FB681B6B5A1CFB681A63EC
:10325000FB68DB8E9BB2013B9AB2FB68DA8615E015
:10326000FEF7CCFE0246BB69D31A3A689A4203D8ED
:103270003B68B3F1FF3F02D13B68002B06D103232B
:10328000FB77FB68012283F8512029E0FB68DB8E85
:103290009BB2002BC9D1BA693968F86800F062FAAC
:1032A0000346002B02D0FB6820225A65FB689B680E
:1032B000002B0AD100233B61FB681B68DB683B6184
:1032C000FB681B689B683B613B69FB685B6D002B7F
:1032D00002D00123FB7703E0FB68012283F8512031
:1032E000FB68002283F85020FB7F18462037BD463C
:1032F00080BD80B58CB000AFF860B9607A607B802B
:103300000123FB62002387F82B30FB6893F85030D1
:10331000012B01D1022398E1FB68012283F85020A0
:10332000FEF76CFE7862FB6893F8513087F8233023
:10333000FB685B68FB617B887B8397F82330012BFC
:103340000FD0FB69B3F5827F07D1FB689B68002B28
:1033500003D197F82330042B03D0022387F82B30B6
:103360006DE1BB68002B05D07B68002B02D07B8809
:10337000002B03D1012387F82B3060E1FB6893F821
:103380005130DBB2042B03D0FB68052283F85120B7
:10339000FB6800225A65FB687A689A63FB687A8842
:1033A000DA87FB687A889A87FB68BA681A63FB68D1
:1033B0007A88DA86FB687A889A86FB6800221A6423
:1033C000FB6800225A64FB681B681B6803F040031B
:1033D000402B07D0FB681B681A68FB681B6842F02B
:1033E00040021A60FB68DB68B3F5006F7CD1FB68B4
:1033F0005B68002B02D07B8B012B6AD1FB681B6BB7
:103400001A88FB681B68DA60FB681B6B9A1CFB68F8
:103410001A63FB68DB8E9BB2013B9AB2FB68DA86CB
:1034200057E0FB681B689B6803F00203022B1BD16B
:10343000FB68DB8E9BB2002B16D0FB6A012B13D1ED
:10344000FB681B6B1A88FB681B68DA60FB681B6BE8
:103450009A1CFB681A63FB68DB8E9BB2013B9AB235
:10346000FB68DA860023FB62FB681B689B6803F03D
:103470000103012B19D1FB68DB8F9BB2002B14D009
:10348000FB681B68DA68FB689B6B92B21A80FB686A
:103490009B6B9A1CFB689A63FB68DB8F9BB2013BBA
:1034A0009AB2FB68DA870123FB62FEF7A7FD0246AA
:1034B0007B6AD31ABA6B9A420BD8BB6BB3F1FF3F4E
:1034C00007D0032387F82B30FB68012283F85120B3
:1034D000B5E0FB68DB8E9BB2002BA2D1FB68DB8FD3
:1034E0009BB2002B9DD180E0FB685B68002B02D073
:1034F0007B8B012B6FD1FB681A6BFB681B680C334D
:1035000012781A70FB681B6B5A1CFB681A63FB6805
:10351000DB8E9BB2013B9AB2FB68DA865BE0FB680C
:103520001B689B6803F00203022B1CD1FB68DB8E37
:103530009BB2002B17D0FB6A012B14D1FB681A6BCE
:10354000FB681B680C3312781A70FB681B6B5A1CE3
:10355000FB681A63FB68DB8E9BB2013B9AB2FB6887
:10356000DA860023FB62FB681B689B6803F001039B
:10357000012B19D1FB68DB8F9BB2002B14D0FB68A9
:103580001B68DA68FB689B6BD2B21A70FB689B6B96
:103590005A1CFB689A63FB68DB8F9BB2013B9AB2B3
:1035A000FB68DA870123FB62FEF728FD02467B6A8F
:1035B000D31ABA6B9A4203D8BB6BB3F1FF3F02D167
:1035C000BB6B002B07D1032387F82B30FB6801224C
:1035D00083F8512033E0FB68DB8E9BB2002B9ED139
:1035E000FB68DB8F9BB2002B99D17A6AB96BF868C4
:1035F00000F0B8F80346002B06D0012387F82B30E3
:10360000FB6820225A651AE0FB689B68002B0AD1F0
:1036100000237B61FB681B68DB687B61FB681B68C0
:103620009B687B617B69FB685B6D002B03D001238A
:1036300087F82B3003E0FB68012283F85120FB68F8
:10364000002283F8502097F82B3018463037BD46BB
:1036500080BD000080B588B000AFF860B9603B6005
:103660001346FB71FEF7CAFC0246BB6A9B1A3A6816
:103670001344FB61FEF7C2FCB861394B1B685B0168
:103680001B0DFA6902FB03F37B6154E03B68B3F165
:10369000FF3F50D0FEF7B2FC0246BB69D31AFA696D
:1036A0009A4202D9FB69002B3DD1FB681B685A681E
:1036B000FB681B6822F0E0025A60FB685B68B3F5A8
:1036C000827F11D1FB689B68B3F5004F04D0FB6883
:1036D0009B68B3F5806F07D1FB681B681A68FB68AD
:1036E0001B6822F040021A60FB689B6AB3F5005F1A
:1036F0000FD1FB681B681A68FB681B6822F4005234
:103700001A60FB681B681A68FB681B6842F4005269
:103710001A60FB68012283F85120FB68002283F8BD
:103720005020032317E07B69002B01D10023FB61AC
:103730007B69013B7B61FB681B689A68BB6813402F
:10374000BA689A420CBF01230023DBB21A46FB7908
:103750009A429BD1002318462037BD4680BD00BF4A
:103760000400002080B586B002AFF860B9607A60CE
:103770007B680093BB6800228021F868FFF76AFF2E
:103780000346002B07D0FB685B6D43F02002FB680B
:103790005A65032300E0002318461037BD4680BD5C
:1037A00080B582B000AF78607B68002B01D1012327
:1037B00042E07B6893F84130DBB2002B06D17B6896
:1037C000002283F840207868FEF736FA7B682422CE
:1037D00083F841207B681B68DA687B681B6822F4E9
:1037E0000052DA60786800F07FFC7B681B681A6919
:1037F0007B681B6822F490421A617B681B685A69D7
:103800007B681B6822F02A025A617B681B68DA68B1
:103810007B681B6842F40052DA607B6800225A64BD
:103820007B68202283F841207B68202283F8422095
:103830007B6800225A63002318460837BD4680BDC6
:1038400080B5BAB000AF78607B681B681B68C7F8AA
:10385000E4307B681B68DB68C7F8E0307B681B6876
:103860005B69C7F8DC300023C7F8D8300023C7F8FD
:10387000D430D7F8E43003F00F03C7F8D830D7F8C6
:10388000D830002B0FD1D7F8E43003F02003002B01
:1038900009D0D7F8E03003F02003002B03D078687C
:1038A00000F063FB5BE2D7F8D830002B00F0DE803D
:1038B000D7F8DC3003F00103002B06D1D7F8E03055
:1038C00003F49073002B00F0D180D7F8E43003F0BC
:1038D0000103002B0BD0D7F8E03003F48073002BEA
:1038E00005D07B685B6C43F001027B685A64D7F8B3
:1038F000E43003F00403002B0BD0D7F8DC3003F0E6
:103900000103002B05D07B685B6C43F002027B68EF
:103910005A64D7F8E43003F00203002B0BD0D7F839
:10392000DC3003F00103002B05D07B685B6C43F0B7
:1039300004027B685A64D7F8E43003F00803002BD4
:1039400011D0D7F8E03003F02003002B05D1D7F8D1
:10395000DC3003F00103002B05D07B685B6C43F087
:1039600008027B685A647B685B6C002B00F0F28174
:10397000D7F8E43003F02003002B08D0D7F8E0306C
:1039800003F02003002B02D0786800F0EEFA7B6889
:103990001B685B6903F04003002B14BF0123002365
:1039A000DBB2C7F8D4307B685B6C03F00803002BF4
:1039B00003D1D7F8D430002B4FD0786800F0F8F955
:1039C0007B681B685B6903F04003002B41D07B6878
:1039D0001B681433C7F89C30D7F89C3053E8003F7D
:1039E000C7F89830D7F8983023F04003C7F8D030A4
:1039F0007B681B681433D7F8D020C7F8A820C7F815
:103A0000A430D7F8A410D7F8A82041E80023C7F8BD
:103A1000A030D7F8A030002BD9D17B68DB6B002B0E
:103A200013D07B68DB6B7E4A5A637B68DB6B18467E
:103A3000FEF75AFC0346002B16D07B68DB6B5B6BF2
:103A40007A68D26B104698470EE0786800F09CF9CF
:103A50000AE0786800F098F906E0786800F094F9D8
:103A60007B6800225A6475E100BF73E17B681B6BC1
:103A7000012B40F04F81D7F8E43003F01003002B06
:103A800000F04881D7F8E03003F01003002B00F07D
:103A900041810023BB607B681B681B68BB607B683F
:103AA0001B685B68BB60BB687B681B685B6903F075
:103AB0004003002B00F0B6807B68DB6B1B685B6803
:103AC000A7F8BE30B7F8BE30002B00F045817B6808
:103AD0009B8DB7F8BE209A4280F03E817B68B7F894
:103AE000BE20DA857B68DB6B9B69202B00F0888029
:103AF0007B681B680C33C7F88830D7F8883053E8E8
:103B0000003FC7F88430D7F8843023F48073C7F8B7
:103B1000B8307B681B680C33D7F8B820C7F89420FE
:103B2000C7F89030D7F89010D7F8942041E80023D8
:103B3000C7F88C30D7F88C30002BD9D17B681B6844
:103B400014337B677B6F53E8003F3B673B6F23F089
:103B50000103C7F8B4307B681B681433D7F8B4206E
:103B6000C7F88020FB67F96FD7F8802041E8002371
:103B7000BB67BB6F002BE1D17B681B6814333B66CE
:103B80003B6E53E8003FFB65FB6D23F04003C7F835
:103B9000B0307B681B681433D7F8B020FA66BB6678
:103BA000B96EFA6E41E800237B667B6E002BE3D191
:103BB0007B68202283F842207B6800221A637B689E
:103BC0001B680C33FB64FB6C53E8003FBB64BB6CAD
:103BD00023F01003C7F8AC307B681B680C33D7F8B0
:103BE000AC20BA657B65796DBA6D41E800233B6511
:103BF0003B6D002BE3D17B68DB6B1846FEF739FB8E
:103C00007B6802225A637B689A8D7B68DB8D9BB24E
:103C1000D31A9BB21946786800F0BFF89CE000BF49
:103C2000753E00087B689A8D7B68DB8D9BB2D31A4A
:103C3000A7F8CE307B68DB8D9BB2002B00F08E8026
:103C4000B7F8CE30002B00F089807B681B680C33FE
:103C5000BB63BB6B53E8003F7B637B6B23F49073C8
:103C6000C7F8C8307B681B680C33D7F8C8207A6463
:103C70003B64396C7A6C41E80023FB63FB6B002BDF
:103C8000E3D17B681B6814337B627B6A53E8003F97
:103C90003B623B6A23F00103C7F8C4307B681B68B2
:103CA0001433D7F8C4203A63FB62F96A3A6B41E8EF
:103CB0000023BB62BB6A002BE3D17B68202283F820
:103CC00042207B6800221A637B681B680C333B61CF
:103CD0003B6953E8003FFB60FB6823F01003C7F823
:103CE000C0307B681B680C33D7F8C020FA61BB6119
:103CF000B969FA6941E800237B617B69002BE3D154
:103D00007B6802225A63B7F8CE301946786800F013
:103D100044F823E0D7F8E43003F08003002B09D007
:103D2000D7F8E03003F08003002B03D0786800F070
:103D3000B5F814E0D7F8E43003F04003002B0ED0C0
:103D4000D7F8E03003F04003002B08D0786800F08B
:103D5000F4F804E000BF02E000BF00E000BFE83775
:103D6000BD4680BD80B483B000AF786000BF0C3723
:103D7000BD4680BC704780B483B000AF786000BFA0
:103D80000C37BD4680BC704780B483B000AF78600C
:103D900000BF0C37BD4680BC704780B483B000AF15
:103DA00078600B467B8000BF0C37BD4680BC7047F7
:103DB00080B495B000AF78607B681B680C337B6380
:103DC0007B6B53E8003F3B633B6B23F49073FB64D6
:103DD0007B681B680C33FA6C3A64FB63F96B3A6CD2
:103DE00041E80023BB63BB6B002BE5D17B681B68FC
:103DF00014333B623B6A53E8003FFB61FB6923F0ED
:103E00000103BB647B681B681433BA6CFA62BB6243
:103E1000B96AFA6A41E800237B627B6A002BE5D12C
:103E20007B681B6B012B19D17B681B680C33FB6013
:103E3000FB6853E8003FBB60BB6823F010037B6462
:103E40007B681B680C337A6CBA617B617969BA69EB
:103E500041E800233B613B69002BE5D17B682022D0
:103E600083F842207B6800221A6300BF5437BD46A6
:103E700080BC704780B584B000AF78607B685B6AB7
:103E8000FB60FB680022DA85FB680022DA84F868B0
:103E9000FFF77AFF00BF1037BD4680BD80B485B004
:103EA00000AF78607B6893F84130DBB2212B3ED1C4
:103EB0007B689B68B3F5805F14D17B681B69002B1E
:103EC00010D17B681B6AFB60FB681B881A467B6805
:103ED0001B68C2F308025A607B681B6A9A1C7B68E5
:103EE0001A6208E07B681B6A591C7A6811621A78AA
:103EF0007B681B685A607B68DB8C9BB2013B9BB282
:103F00007A681946D184002B0FD17B681B68DA6868
:103F10007B681B6822F08002DA607B681B68DA68C5
:103F20007B681B6842F04002DA60002300E0022355
:103F300018461437BD4680BC704780B582B000AFCC
:103F400078607B681B68DA687B681B6822F0400237
:103F5000DA607B68202283F841207868FFF702FF4F
:103F6000002318460837BD4680BD80B58CB000AF31
:103F700078607B6893F84230DBB2222B40F0AE8051
:103F80007B689B68B3F5805F17D17B681B69002B4A
:103F900013D10023FB627B689B6ABB627B681B6852
:103FA0005B689BB2C3F308039AB2BB6A1A807B6852
:103FB0009B6A9A1C7B689A6226E07B689B6AFB621C
:103FC0000023BB627B689B68B3F5805F07D07B688A
:103FD0009B68002B0AD17B681B69002B06D17B688C
:103FE0001B685B68DAB2FB6A1A7008E07B681B68C2
:103FF0005B68DBB203F07F03DAB2FB6A1A707B689E
:104000009B6A5A1C7B689A627B68DB8D9BB2013B82
:104010009BB27A681946D185002B5DD17B681B68FD
:10402000DA687B681B6822F02002DA607B681B6814
:10403000DA687B681B6822F48072DA607B681B6830
:104040005A697B681B6822F001025A617B68202252
:1040500083F842207B6800225A637B681B6B012B2C
:1040600035D17B6800221A637B681B680C337B6147
:104070007B6953E8003F3B613B6923F010037B629F
:104080007B681B680C337A6A3A62FB61F9693A6AA9
:1040900041E80023BB61BB69002BE5D17B681B684D
:1040A0001B6803F01003102B0AD10023FB607B6810
:1040B0001B681B68FB607B681B685B68FB60FB68B8
:1040C0007B689B8D19467868FFF767FE02E0786889
:1040D000FFF751FE002302E0002300E00223184610
:1040E0003037BD4680BD000080B584B000AF786039
:1040F0007B681B681B6923F440517B68DA687B6826
:104100001B680A431A617B689A687B681B691A43BB
:104110007B685B691343BB607B681B68DB6823F4C7
:10412000B05323F00C037A681268B9680B43D3606C
:104130007B681B685B6923F440717B689A697B68C4
:104140001B680A435A617B681B682C4A934203D15F
:10415000FEF7D6FEF86002E0FEF7BEFEF860FA68F1
:1041600013469B0013449A001A447B685B689B00CB
:10417000B2FBF3F3224AA2FB03235B091901FA689D
:1041800013469B0013449A001A447B685B689B00AB
:10419000B2FBF3F21A4BA3FB02035B09642000FBA2
:1041A00003F3D31A1B013233154AA2FB03235B0925
:1041B00003F0F0031944FA6813469B0013449A0075
:1041C0001A447B685B689B00B2FBF3F20C4BA3FBC9
:1041D00002035B09642000FB03F3D31A1B01323393
:1041E000074AA2FB03235B0903F00F027B681B68ED
:1041F0000A449A6000BF1037BD4680BD00380140B8
:104200001F85EB5180B500AF0449054804F098F9CB
:1042100003461A46034B1A7000BF80BD04030020FA
:10422000100000200003002080B400AF00231846D7
:10423000BD4680BC704780B582B000AF0346FB71BD
:10424000FB791846FCF77EFE034618460837BD4644
:1042500080BD80B582B000AF0346FB71FB79184684
:10426000FCF756FF034618460837BD4680BD80B5AB
:1042700084B000AFB9607A603B600346FB73F87BA3
:104280003B687A68B968FCF757FF03461846103751
:10429000BD4680BD80B584B000AFB9607A603B6038
:1042A0000346FB73F87B3B687A68B968FCF7AEFF9E
:1042B000034618461037BD4680BD80B582B000AFBA
:1042C00003463A60FB710B46BB71B979FB793A68DA
:1042D0001846FDF71FF8034618460837BD4680BD4F
:1042E00080B584B000AF0346FB71FB79084A9B00A0
:1042F00013445B685B68FA7905490A44127A1046F0
:1043000098470346FB73FB7B18461037BD4680BDBC
:104310002805002080B584B000AF0346FB71002360
:10432000FB73FB790D4AD35C002B11D1FB790B4A4F
:104330000121D154FB79094A9B0013445B681B6837
:10434000FA7906490A44127A104698470346FB73E5
:10435000FB7B18461037BD4680BD00BF28050020F6
:1043600090B587B000AFB9607A603B600346FB73DD
:10437000FB7B0A4A9B0013445B689C68FB7B074AF3
:104380001344187A3B687A68B968A0470346FB75FE
:10439000FB7D18461C37BD4690BD00BF2805002098
:1043A00090B587B000AFB9607A603B600346FB739D
:1043B000FB7B0A4A9B0013445B68DC68FB7B074A73
:1043C0001344187A3B687A68B968A0470346FB75BE
:1043D000FB7D18461C37BD4690BD00BF2805002058
:1043E00080B584B000AF03463A60FB710B46BB71E9
:1043F000FB79094A9B0013445B681B69FA790649FB
:104400000A44107AB9793A6898470346FB73FB7BF4
:1044100018461037BD4680BD2805002080B487B0FF
:1044200000AFF860B9607A60FB687B61BB683B6194
:1044300007E03A69531C3B617B69591C796112782A
:104440001A707B685A1E7A60002BF2D100BF00BF41
:104450001C37BD4680BC704780B487B000AFF860A1
:10446000B9607A60FB687B6105E07B695A1C7A6100
:10447000BA68D2B21A707B685A1E7A60002BF4D1E7
:1044800000BF00BF1C37BD4680BC704780B489B0F8
:1044900000AFF860B9607A60FB68FB61BB68BB6124
:1044A00000237B6100BF7B685A1E7A60002B0DD011
:1044B000FB695A1CFA611B781946BB695A1CBA6120
:1044C0001B78CB1A7B617B69002BECD07B6918468B
:1044D0002437BD4680BC704780B483B000AF78609D
:1044E000396002E07B6801337B607B681B78002BBE
:1044F00005D07B681B781A463B689342F2D17B68F3
:104500001B7818460C37BD4680BC704780B485B018
:1045100000AF786039600023BB60BB68FB603BE0A4
:104520003149FA6813465B0013449B000B441B6837
:10453000002B2CD02C49FA6813465B0013449B00D7
:104540000B441A687B6803F580531B689A4220D19C
:104550002549FA6813465B0013449B000B4404335F
:104560001A687B6803F580539B689A4211D11E49F3
:10457000FA6813465B0013449B000B4408331A8807
:104580007B6803F58053DB889A4202D107E0012360
:10459000BB60FB680133FB60FB68012BC0D9FB6883
:1045A000022B09D1BB68002B02D13B68022B01D141
:1045B000002313E0122311E03B68002B0BD10A49C2
:1045C000FA6813465B0013449B000B440A331B88B4
:1045D000B3F5807F01D1102300E000231846143783
:1045E000BD4680BC704700BF1003002080B483B07C
:1045F00000AF00237B6002E07B6801337B607B6857
:10460000012B09D80A497A6813465B0013449B00C2
:104610000B441B68002BEFD17B68022B14BF0123D6
:104620000023DBB218460C37BD4680BC704700BF84
:104630001003002080B485B000AF7860396000239B
:10464000FB602EE05849FA6813465B0013449B0058
:104650000B441A687B6803F580531B689A421DD18E
:104660005149FA6813465B0013449B000B44043322
:104670001A687B6803F580539B689A420ED14A49B9
:10468000FA6813465B0013449B000B4408331A88F6
:104690007B6803F58053DB889A4206D0FB680133C0
:1046A000FB60FB68012BCDD900E000BFFB68022B4B
:1046B00048D10023FB6002E0FB680133FB60FB682C
:1046C000012B09D83849FA6813465B0013449B0054
:1046D0000B441B68002BEFD1FB68022B01D1002398
:1046E0005DE07B6803F5805319682F48FA6813462C
:1046F0005B0013449B00034419607B6803F58053FF
:1047000099682948FA6813465B0013449B000344E8
:10471000043319607B6803F58053D8882249FA680E
:1047200013465B0013449B000B44083302461A8077
:104730001D49FA6813465B0013449B000B440A337F
:1047400000221A803B68002B0CD01749FA681346E8
:104750005B0013449B000B440A331B88002B01D0E1
:1047600000231CE03B68002B0BD10F49FA6813466D
:104770005B0013449B000B440A331B88013399B23E
:1047800001E04FF480710848FA6813465B00134457
:104790009B0003440A330A461A80FB68013318461B
:1047A0001437BD4680BC70471003002080B485B02C
:1047B00000AF78607B68013B7B607B68012B2ED863
:1047C0001B497A6813465B0013449B000B440A3371
:1047D0001B88FB81FB89B3F5807F01D10023FB811E
:1047E000FB89002B02D0FB89013BFB8110497A68D1
:1047F00013465B0013449B000B440A33FA891A806A
:10480000FB89002B08D10A497A6813465B001344E0
:104810009B000B4400221A6000237B7301E00223FB
:104820007B737B7B18461437BD4680BC704700BF46
:104830001003002080B485B000AF78600023FB60D7
:1048400016E01049FA6813465B0013449B000B44C2
:104850001B687A689A4208D10A49FA6813465B00D5
:1048600013449B000B4400221A60FB680133FB6079
:10487000FB68012BE5D900BF00BF1437BD4680BCE3
:10488000704700BF1003002080B586B000AF78608D
:104890000023FB737B6803F580531B79002B40D00A
:1048A0007B6803F58053DB6A7B617B6803F580538B
:1048B0005878796801237A69FFF772FD0346002B67
:1048C00002D00123FB732CE07B6803F580530022A8
:1048D0001A717B6803F580531B6A7A69D21A7B6868
:1048E00003F580539B699A421BD27B6803F5805382
:1048F000DB783B6112E07B6803F580539B697A6942
:1049000013447B617B6803F58053587879680123F1
:104910007A69FFF745FD3B69013B3B613B69012B30
:10492000E9D8FB7B18461837BD4680BD80B584B0FA
:1049300000AF786039600023FB737B6803F5805318
:10494000DB6A3A689A421ED07868FFF79DFF0346FB
:10495000FB73FB7B002B16D17B6803F580535878E3
:10496000796801233A68FFF7FBFC0346002B04D06B
:104970004FF0FF333B600123FB737B6803F58053EB
:104980001A463B68D362FB7B18461037BD4680BD94
:1049900080B584B000AF78607868FFF775FF034694
:1049A000FB73FB7B002B40F0AD807B6803F58053ED
:1049B0001B78032B40F098807B6803F580535B796C
:1049C000012B40F0918078687B6803F580535B8908
:1049D0001A460021FFF740FD7B68552283F8FE212F
:1049E0007B68AA2283F8FF217B6852221A707B68B9
:1049F00052225A707B6861229A707B684122DA7079
:104A00007B68722283F8E4217B68722283F8E521B7
:104A10007B68412283F8E6217B68612283F8E721E5
:104A20007B6803F580531B69DAB27B6883F8E82161
:104A30007B6803F580531B699BB21B0A9BB2DAB2F9
:104A40007B6883F8E9217B6803F580531B691B0CA5
:104A5000DAB27B6883F8EA217B6803F580531B692F
:104A60001B0EDAB27B6883F8EB217B6803F5805379
:104A7000DB68DAB27B6883F8EC217B6803F580534E
:104A8000DB689BB21B0A9BB2DAB27B6883F8ED212C
:104A90007B6803F58053DB681B0CDAB27B6883F814
:104AA000EE217B6803F58053DB681B0EDAB27B686E
:104AB00083F8EF217B6803F58053DB6901337A6863
:104AC00002F58052D3627B6803F580535878796889
:104AD0007B6803F58053DA6A0123FFF761FC7B688A
:104AE00003F5805300225A717B6803F580535B788D
:104AF000002200211846FFF773FC0346002B01D06B
:104B00000123FB73FB7B18461037BD4680BD80B484
:104B100083B000AF786039603B68023B3B607B68E4
:104B200003F580535B69023B3A689A4201D3002344
:104B30000CE07B6803F580539B781A463B6803FBC7
:104B400002F27B6803F580539B6A134418460C37C6
:104B5000BD4680BC704780B586B000AF78603960D4
:104B60003B68012B06D97B6803F580535B693A6883
:104B70009A4202D301237B61E4E04FF0FF337B6173
:104B80007B6803F580531B78032B00F09880032B80
:104B900000F3CE80012B02D0022B5FD0C8E03B682F
:104BA000FB60FB685B08FA681344FB607B6803F5F5
:104BB00080531A6A7B6803F580535B891946FB684A
:104BC000B3FBF1F3134419467868FFF7AFFE0346D1
:104BD000002B40F0B080FB685A1CFA607A6802F53E
:104BE00080525289B3FBF2F101FB02F29B1A7A6800
:104BF000D35CBB607B6803F580531A6A7B6803F55E
:104C000080535B891946FB68B3FBF1F313441946E3
:104C10007868FFF78BFE0346002B40F08E807B68A0
:104C200003F580535B891A46FB68B3FBF2F101FB85
:104C300002F29B1A7A68D35C1B021A46BB681343C4
:104C4000BB603B6803F00103002B02D0BB681B096B
:104C500002E0BB68C3F30B037B6173E07B6803F581
:104C600080531A6A7B6803F580535B895B089BB2AB
:104C700019463B68B3FBF1F3134419467868FFF714
:104C800055FE0346002B5AD13B685B007A6802F55B
:104C900080525289B3FBF2F101FB02F29B1A7A684F
:104CA00013443B613B6901331B781B021AB23B6919
:104CB0001B781BB213431BB29BB27B6142E07B6843
:104CC00003F580531A6A7B6803F580535B899B0860
:104CD0009BB219463B68B3FBF1F31344194678685D
:104CE000FFF724FE0346002B2BD13B689B007A681C
:104CF00002F580525289B3FBF2F101FB02F29B1ADA
:104D00007A6813443B613B6903331B781A063B699D
:104D100002331B781B0413433A69013212781202E2
:104D200013433A691278134323F070437B6109E01F
:104D300001237B6106E000BF04E000BF02E000BF8A
:104D400000E000BF7B6918461837BD4680BD80B5BE
:104D500088B000AFF860B9607A60BB68012B06D9F3
:104D6000FB6803F580535B69BA689A4202D3022359
:104D7000FB773AE1FB6803F580531B78032B00F0C7
:104D8000D080032B00F32781012B03D0022B00F0EE
:104D90008F8020E1BB687B617B695B087A69134483
:104DA0007B61FB6803F580531A6AFB6803F5805347
:104DB0005B8919467B69B3FBF1F313441946F86824
:104DC000FFF7B4FD0346FB77FB7F002B40F0068125
:104DD0007B695A1C7A61FA6802F580525289B3FBEA
:104DE000F2F101FB02F29B1AFA681344BB61BB6843
:104DF00003F00103002B0DD0BB691B785BB203F0FD
:104E00000F035AB27B68DBB21B015BB213435BB288
:104E1000DBB201E07B68DBB2BA691370FB6803F5B3
:104E2000805301221A71FB6803F580531A6AFB68EC
:104E300003F580535B8919467B69B3FBF1F3134497
:104E40001946F868FFF772FD0346FB77FB7F002BDE
:104E500040F0C680FB6803F580535B891A467B6986
:104E6000B3FBF2F101FB02F29B1AFA681344BB6137
:104E7000BB6803F00103002B03D07B681B09DBB286
:104E80000EE0BB691B785BB223F00F035AB27B685C
:104E90001B0A5BB203F00F035BB213435BB2DBB2DE
:104EA000BA691370FB6803F5805301221A719CE004
:104EB000FB6803F580531A6AFB6803F580535B892E
:104EC0005B089BB21946BB68B3FBF1F31344194668
:104ED000F868FFF72BFD0346FB77FB7F002B40F0C4
:104EE0008180BB685B00FA6802F580525289B3FB8F
:104EF000F2F101FB02F29B1AFA681344BB617B6872
:104F0000DAB2BB691A707B689BB21B0A9AB2BB69A2
:104F10000133D2B21A70FB6803F5805301221A7173
:104F200063E0FB6803F580531A6AFB6803F580535E
:104F30005B899B089BB21946BB68B3FBF1F3134432
:104F40001946F868FFF7F2FC0346FB77FB7F002B5E
:104F50004AD1BB689B00FA6802F580525289B3FBC4
:104F6000F2F101FB02F29B1AFA681344BB61BB69C0
:104F700003331B781A06BB6902331B781B041343E7
:104F8000BA690132127812021343BA6912781343D4
:104F900003F070437A6813437B607B68DAB2BB69C5
:104FA0001A707B689BB21B0A9AB2BB690133D2B2FA
:104FB0001A707B681A0CBB690233D2B21A707B6814
:104FC0001A0EBB690333D2B21A70FB6803F5805323
:104FD00001221A7109E00223FB7706E000BF04E01A
:104FE00000BF02E000BF00E000BFFB7F1846203793
:104FF000BD4680BD80B584B000AF786039603B6845
:10500000012B06D97B6803F580535B693A689A42A5
:1050100002D30223FB7349E00023FB733BE03968B2
:105020007868FFF798FDB860BB68002B3BD0BB6881
:10503000012B02D10223FB7338E0BB68B3F1FF3FC1
:1050400002D10123FB7331E0002239687868FFF751
:105050007EFE0346FB73FB7B002B26D17B6803F5AA
:1050600080531B69B3F1FF3F13D07B6803F5805376
:105070001B6901337A6802F5805213617B6803F57E
:1050800080535B7943F00103DAB27B6803F5805308
:105090005A71BB683B607B6803F580535B693A6873
:1050A0009A42BCD302E000BF00E000BFFB7B184681
:1050B0001037BD4680BD80B586B000AF78603960DE
:1050C0003B68002B11D17B6803F58053DB683B61A3
:1050D0003B69002B06D07B6803F580535B693A6916
:1050E0009A421DD301233B611AE039687868FFF7C3
:1050F00032FDB860BB68012B01D801237FE0BB689B
:10510000B3F1FF3F01D1BB6879E07B6803F58053C1
:105110005B69BA689A4201D2BB6870E03B683B6148
:105120003B697B617B6901337B617B6803F580535D
:105130005B697A699A4207D302237B617A693B698A
:105140009A4201D900235AE079697868FFF703FD94
:10515000B860BB68002B0ED0BB68B3F1FF3F02D034
:10516000BB68012B01D1BB6849E07A693B699A426F
:10517000D8D1002343E000BF6FF0704279697868AE
:10518000FFF7E5FD0346FB73FB7B002B09D13B6872
:10519000002B06D07A6939687868FFF7D8FD034696
:1051A000FB73FB7B002B21D17B6803F580531A46F0
:1051B0007B69D3607B6803F580531B69B3F1FF3FC4
:1051C0001CD07B6803F580531B69013B7A6802F5AC
:1051D000805213617B6803F580535B7943F00103D0
:1051E000DAB27B6803F580535A7107E0FB7B012B31
:1051F00002D14FF0FF3300E001237B617B69184649
:105200001837BD4680BD80B487B000AF7860396084
:105210007B6803F580535B6A04333B617B6803F56D
:1052200080531B6803F580535B891A463B68B3FBC8
:10523000F2F37A6802F58052126802F58052927891
:10524000B3FBF2F37B613B691A1D3A611B68FB609B
:10525000FB68002B01D1002310E07A69FB689A42B9
:1052600007D37A69FB68D31A7B613B6904333B61DE
:10527000E9E700BF3B691A687B69134418461C378D
:10528000BD4680BC704780B586B000AF786039609D
:105290003B689AB27B6803F58053DA807B6803F53C
:1052A00080539B687B617B69012B09D07B6803F588
:1052B00080531B6803F580535B697A699A4201D376
:1052C0000223AAE07B69002B10D17B6803F5805391
:1052D0001B6803F580531B78032B07D17B6803F50C
:1052E00080531B6803F580535B6A7B617B69002BED
:1052F00015D17B6803F580531B6803F580531B8928
:105300001A463B68934201D3022386E07B6803F58B
:1053100080531B6803F580535B6A3B6143E07B6805
:1053200003F580531B6803F580535B895B099BB2CF
:105330001A467B6803F580531B6803F580539B78FE
:1053400002FB03F3FB6021E07B6803F580531B68DD
:1053500079691846FFF7FFFB78617B69B3F1FF3F7E
:1053600001D1012359E07B69012B09D97B6803F541
:1053700080531B6803F580535B697A699A4201D3B5
:1053800002234AE03A68FB68D31A3B603A68FB683C
:105390009A42D9D27B6803F580531B687969184615
:1053A000FFF7B5FB38617B6803F580531A467B69CC
:1053B000D3603B69002B01D102232EE07B6803F50B
:1053C00080531B6803F580535B895B099BB21A46C7
:1053D0003B68B3FBF2F23B6913447A6802F58052F2
:1053E00013617B6803F580531B6818467B6803F5DF
:1053F00080531B6803F580535B895B099BB21A4697
:105400003B68B3FBF2F101FB02F29B1A5B01034420
:105410007A6802F580525361002318461837BD465A
:1054200080BD90B587B000AF786039607B6803F5C8
:105430008053DB880133FB60FB689BB2002B05D0F7
:105440007B6803F580531B69002B01D104232EE1F7
:105450007B6803F580531B6803F580535B895B0908
:105460009BB21A46FB68B3FBF2F101FB02F29B1AF6
:10547000002B40F0FA807B6803F580531B690133F1
:105480007A6802F5805213617B6803F58053DB680C
:10549000002B0DD17B6803F580531B6803F5805307
:1054A0001B891A46FB689342C0F0DF800423FEE0AC
:1054B0007B6803F580531B6803F580535B895B09A8
:1054C0009BB21A46FB68B3FBF2F37A6802F580528E
:1054D000126802F580529278013A1340002B40F096
:1054E000C4807B6803F580531A687B6803F580539A
:1054F000DB6819461046FFF72EFB78617B69012BAC
:1055000001D80223D3E07B69B3F1FF3F01D101232E
:10551000CDE07B6803F580531B6803F580535B691E
:105520007A699A42C0F08E803B68002B01D1042337
:10553000BDE07B6803F580531A687B6803F58053F0
:10554000DB6819461046FFF7B6FD78617B69002BD2
:1055500001D10723ABE07B69012B01D10223A6E037
:105560007B69B3F1FF3F01D10123A0E07B6803F524
:1055700080531B681846FFF787F90346002B01D0BC
:10558000012394E07B6803F580531B6818467B6811
:1055900003F580531B6803F580535B891A4600218D
:1055A000FEF75AFF7B6803F580531A687B6803F5A2
:1055B00080531C6879691046FFF7A9FA034604F581
:1055C0008052D36200233B6121E07B6803F5805366
:1055D0001B6803F5805301221A717B6803F5805321
:1055E0001B681846FFF750F90346002B01D0012332
:1055F0005DE07B6803F580531B6803F58052D26A37
:10560000013203F58053DA623B6901333B617B6809
:1056100003F580531B6803F580539B781A463B695A
:105620009342D2D37B6803F580531B6803F5805304
:10563000D96A7B6803F580531A683B69CB1A02F577
:105640008052D3627B6803F580531A467B69D3602E
:105650007B6803F580531B6879691846FFF757FA92
:1056600002467B6803F580531A61FB689AB27B6837
:1056700003F58053DA807B6803F580531B68184676
:105680007B6803F580531B6803F580535B895B09D6
:105690009BB21A46FB68B3FBF2F101FB02F29B1AC4
:1056A0005B0103447A6802F5805253610023184677
:1056B0001C37BD4690BD80B584B000AF78603960BE
:1056C00000217868FFF7DFFD0346FB73FB7B002BAF
:1056D00035D10023BB607B6803F580531A687B6873
:1056E00003F580531B6919461046FFF71FF903465F
:1056F000FB73FB7B002B21D17B6803F580535B6937
:105700001B78E52B06D07B6803F580535B691B781B
:10571000002B07D1BB680133BB60BA683B689A4273
:1057200002D10CE00023BB6001217868FFF779FE0D
:105730000346FB73FB7B002BCDD000E000BFFB7B5F
:10574000042B01D10723FB73FB7B18461037BD46A2
:1057500080BD80B485B000AF786039603B681B3392
:105760001B781B021AB23B681A331B781BB2134317
:105770001BB29BB2FB607B6803F580531B78032B45
:105780000FD13B6815331B781B021AB23B681433E8
:105790001B781BB213431BB29BB21B04FA68134362
:1057A000FB60FB6818461437BD4680BC704780B468
:1057B00083B000AF786039607B681A333A68D2B240
:1057C0001A703B689BB21B0A9AB27B681B33D2B239
:1057D0001A703B681A0C7B681433D2B21A703B689B
:1057E0001B0C9BB21B0A9AB27B681533D2B21A709B
:1057F00000BF0C37BD4680BC7047000080B586B046
:1058000000AF786039603B681B7823F040035A1E74
:1058100013465B0013449B0013447B6100233B61F0
:105820000123FB812B4A3B6913441B7801333A68FF
:1058300013441B781B021AB226493B690B441B78A0
:1058400019463B680B441B781BB213431BB2BB8148
:10585000FB89002B19D0BB89184602F0BBFE03461A
:10586000FB817B69FE2B0ED87B695A1C7A615B0039
:105870007A6813441B88184602F0ACFE03461A46A9
:10588000FB89934208D000231FE0BB894FF6FF72CB
:10589000934201D0002318E03B6901333B613B692F
:1058A0000C2BBFD93B681B7803F04003002B0BD0B7
:1058B000FB89002B08D07B695B007A6813441B8846
:1058C000002B01D0002300E0012318461837BD4605
:1058D00080BD00BFF8CE000880B489B000AFF8608A
:1058E000B96011461A460B46FB711346BB71BB6883
:1058F0000D33BA791A70BB680B330F221A70BB686C
:105900000C3300221A70BB681A3300221A70BB686D
:105910001B3300221A70FB795A1E13465B00134496
:105920009B001344FB610023FB820023BB61FB8AC5
:105930004FF6FF72934207D0FB695A1CFA615B0075
:10594000FA6813441B88FB821C4ABB6913441B780A
:105950001A46BB681344FA8AD2B21A70FB8A1B0A31
:1059600099B2164ABB6913441B780133BA681344D1
:10597000CAB21A70FB8A002B02D14FF6FF73FB826A
:10598000BB690133BB61BB690C2BD0D9FB8A4FF6D5
:10599000FF72934206D0FB695B00FA6813441B88D0
:1059A000002B03D1FB7943F04003FB71BB68FA790C
:1059B0001A7000BF2437BD4680BC7047F8CE00087F
:1059C00080B58CB000AFF860B9607A603B600B22A4
:1059D000B968F868FEF722FD3B68052B2BD93B68B8
:1059E000FB6122E07B689A1C7A601B887B84002321
:1059F000BB6217E0FB695A007B8C03F00103134480
:105A0000FB617B8C5B087B84FB6903F48033002B98
:105A100005D0FB6983F4883383F02103FB61BB6A03
:105A20000133BB62BB6A0F2BE4D97B681B88002B58
:105A3000D8D1FB693B600723BB623B68DBB203F054
:105A40000F03DBB2303387F82F3097F82F30392B24
:105A500004D997F82F30073387F82F30BB6A5A1EC6
:105A6000BA6230333B4497F82F2003F81C2C3B6874
:105A70001B093B603B68002BDFD107F11402BB6AB6
:105A800013447E221A7000237B6202E07B6A01339A
:105A90007B627A6ABB6A9A4205D2FA687B6A1344CF
:105AA0001B78202BF2D1BB6A072B07D8BB6A5A1C84
:105AB000BA6230333B4413F81C1C00E020217B6A9F
:105AC0005A1C7A62FA6813440A461A707B6A072BDA
:105AD000E9D900BF00BF3037BD4680BD80B485B076
